:020000040000fa
:080000000001040000000000f3
:020000040000fa
:040008003e020000b4
:020000040000fa
:04000c00800200006e
:020000040000fa
:04001000c00200002a
:020000040000fa
:040014005e02000088
:020000040000fa
:04001800a002000042
:020000040000fa
:04001c007403000069
:020000040000fa
:040020007403000065
:020000040000fa
:040024007403000061
:020000040000fa
:04002800740300005d
:020000040000fa
:04002c007403000059
:020000040000fa
:0400300018020000b2
:020000040000fa
:040034007403000051
:020000040000fa
:04003800740300004d
:020000040000fa
:04003c007403000049
:020000040000fa
:0400400016030000a3
:020000040000fa
:04004400e0020000d6
:020000040000fa
:040048003e03000073
:020000040000fa
:04004c007403000039
:020000040000fa
:040050007403000035
:020000040000fa
:040054007403000031
:020000040000fa
:04005800740300002d
:020000040000fa
:04005c007403000029
:020000040000fa
:040060007403000025
:020000040000fa
:040064007403000021
:020000040000fa
:04006800740300001d
:020000040000fa
:04006c007403000019
:020000040000fa
:040070007403000015
:020000040000fa
:040074007403000011
:020000040000fa
:04007800740300000d
:020000040000fa
:04007c007403000009
:020000040000fa
:040080007403000005
:020000040000fa
:040084007403000001
:020000040000fa
:0400880074030000fd
:020000040000fa
:04008c0074030000f9
:020000040000fa
:0400900074030000f5
:020000040000fa
:0400940074030000f1
:020000040000fa
:0400980074030000ed
:020000040000fa
:04009c0074030000e9
:020000040000fa
:0400a00074030000e5
:020000040000fa
:0400a40074030000e1
:020000040000fa
:0400a80074030000dd
:020000040000fa
:0400ac0074030000d9
:020000040000fa
:0400b00074030000d5
:020000040000fa
:0400b40074030000d1
:020000040000fa
:0400b80074030000cd
:020000040000fa
:0400bc0074030000c9
:020000040000fa
:0400c00074030000c5
:020000040000fa
:0400c40074030000c1
:020000040000fa
:0400c80074030000bd
:020000040000fa
:0400cc0074030000b9
:020000040000fa
:0400d00074030000b5
:020000040000fa
:0400d40074030000b1
:020000040000fa
:0400d80074030000ad
:020000040000fa
:0400dc0074030000a9
:020000040000fa
:0400e00074030000a5
:020000040000fa
:0400e40074030000a1
:020000040000fa
:0400e800740300009d
:020000040000fa
:0400ec007403000099
:020000040000fa
:0400f0007403000095
:020000040000fa
:0400f4007403000091
:020000040000fa
:0400f800740300008d
:020000040000fa
:0400fc007403000089
:020000040000fa
:040100007403000084
:020000040000fa
:040104007403000080
:020000040000fa
:04010800740300007c
:020000040000fa
:04010c007403000078
:020000040000fa
:040110007403000074
:020000040000fa
:040114007403000070
:020000040000fa
:04011800740300006c
:020000040000fa
:04011c007403000068
:020000040000fa
:040120007403000064
:020000040000fa
:040124007403000060
:020000040000fa
:04012800740300005c
:020000040000fa
:04012c007403000058
:020000040000fa
:040130007403000054
:020000040000fa
:040134007403000050
:020000040000fa
:04013800740300004c
:020000040000fa
:04013c007403000048
:020000040000fa
:040140007403000044
:020000040000fa
:040144007403000040
:020000040000fa
:04014800740300003c
:020000040000fa
:04014c007403000038
:020000040000fa
:040150007403000034
:020000040000fa
:040154007403000030
:020000040000fa
:04015800740300002c
:020000040000fa
:04015c007403000028
:020000040000fa
:040160007403000024
:020000040000fa
:040164007403000020
:020000040000fa
:04016800740300001c
:020000040000fa
:04016c007403000018
:020000040000fa
:040170007403000014
:020000040000fa
:040174007403000010
:020000040000fa
:04017800740300000c
:020000040000fa
:04017c007403000008
:020000040000fa
:040180007403000004
:020000040000fa
:040184007403000000
:020000040000fa
:0401880074030000fc
:020000040000fa
:04018c0074030000f8
:020000040000fa
:0401900074030000f4
:020000040000fa
:0401940074030000f0
:020000040000fa
:0401980074030000ec
:020000040000fa
:04019c0074030000e8
:020000040000fa
:0401a00074030000e4
:020000040000fa
:0401a40074030000e0
:020000040000fa
:0401a80074030000dc
:020000040000fa
:0401ac0074030000d8
:020000040000fa
:0401b00074030000d4
:020000040000fa
:0401b40074030000d0
:020000040000fa
:0401b80074030000cc
:020000040000fa
:0401bc0074030000c8
:020000040000fa
:0401c00074030000c4
:020000040000fa
:0401c40074030000c0
:020000040000fa
:0401c80074030000bc
:020000040000fa
:0401cc0074030000b8
:020000040000fa
:0401d00074030000b4
:020000040000fa
:0401d40074030000b0
:020000040000fa
:0401d80074030000ac
:020000040000fa
:0401dc0074030000a8
:020000040000fa
:0401e00074030000a4
:020000040000fa
:0401e40074030000a0
:020000040000fa
:0401e800740300009c
:020000040000fa
:0401ec007403000098
:020000040000fa
:0401f0007403000094
:020000040000fa
:0401f4007403000090
:020000040000fa
:0401f800740300008c
:020000040000fa
:0401fc007403000088
:020000040000fa
:10020000cf8a20000e7f24000e018800000000002d
:10021000000020000000e000020032000001200089
:1002200020028800140007007c0107000000e000a5
:1002300003003a000099210001002000020037006d
:100240000000200001002000810f7000010032003a
:1002500014000700000020000000e000020032004f
:10026000000002000000000032190200000000003f
:100270000040da000000fe004440a900a002200077
:100280000000e00003003200002020009001880000
:100290004440a800000006008a1f78008b1f7800e9
:1002a00000000600a1028800800478000000eb0036
:1002b0001f003700e284440054a0b4009905ba003e
:1002c000e284440054a0b4009906ba00e2844400d9
:1002d00054a0b4000006eb00476fde00fd07b2003b
:1002e000ae018800636ce10003003a00eaff0700fa
:1002f0000000eb000e003700606ce10008003a00df
:10030000004deb000a05e800020039003420ec0043
:100310000af0a0008b05e900f9ff3e000400370059
:100320006168e100010032000086eb000b0007006d
:1003300019c7ba001905ba000e04e00003003a001c
:100340000a00e000dbff3a0000000600fe07b200f2
:10035000ae0288008a047800f5ff37000cd0a300b5
:10036000e20f4d001c00390089027800354dba00bb
:100370000a05e800020039003420ec000af0a00071
:100380008b05e9000f003200254dba000a05e80090
:10039000020039003420ec000af0a0008b05e900cf
:1003a000080032000c00e0000600320015cdba0053
:1003b0000a05e800020039003420ec000af0a00031
:1003c0008b05e9008984e80054a0b4000b00e0002c
:1003d000e2ff3a00000006009902ba00055d7800cd
:1003e0008b05e900f7ff3200c82ade00055d7800c2
:1003f0008b05e900f3ff32000c00e000f1ff320052
:1004000019ddba00eeff3700d21204000000000030
:100410004216040000000000900d040000000000df
:100420004208040000000000400404000000000036
:100430003600f800809fbe00829fbe00849fbe00f1
:10044000869fbe000000fa00400480006400600047
:100450000000e00002003200ce0807008840a9003a
:100460000080fa004f03be004f02be004f01be00e5
:100470004f00be003600f900004006003600f800cc
:10048000809fbe00829fbe00849fbe00869fbe00ec
:100490000000fa008020a9000000eb003e0c0700dd
:1004a0000080fa004f03be004f02be004f01be00a5
:1004b0004f00be003600f900004006003600f8008c
:1004c000809fbe00829fbe00849fbe00869fbe00ac
:1004d0000000fa00350c07008040a9001000200041
:1004e0002d0c07000080fa004f03be004f02be0033
:1004f0004f01be004f00be003600f900004006006c
:100500003600f800809fbe00829fbe00849fbe0020
:10051000869fbe000000fa008060a9002000200035
:100520001d0c07000080fa004f03be004f02be0002
:100530004f01be004f00be003600f900004006002b
:100540003600f800809fbe00829fbe00849fbe00e0
:10055000869fbe000000fa008080a90030002000c5
:100560000d0c07000080fa004f03be004f02be00d2
:100570004f01be004f00be003600f90000400600eb
:100580003600f800809fbe00829fbe00849fbe00a0
:10059000869fbe000000fa008600a90070002000bf
:1005a000fd0b07000080fa004f03be004f02be00a3
:1005b0004f01be004f00be003600f90000400600ab
:1005c0003600f800809fbe00829fbe00849fbe0060
:1005d000869fbe000000fa00904080000000e0000e
:1005e000020032009040800000000100308a2000ac
:1005f000104078008040e800308a200001487800f0
:10060000208a200011c0b3000148780088e0a900ca
:100610000080fa004f03be004f02be004f01be0033
:100620004f00be003600f900004006003600f8001a
:10063000809fbe00829fbe00849fbe00869fbe003a
:100640000000fa00410480000004200000806000e7
:100650000000e00002003200de08070088c0a900a8
:100660000080fa004f03be004f02be004f01be00e3
:100670004f00be003600f900004006003600f800ca
:10068000809fbe00829fbe00849fbe00869fbe00ea
:100690000000fa00004180000000e000020032008b
:1006a0000041800000000100708a200010407800a6
:1006b0008040e800708a200001487800608a2000ad
:1006c00011c0b300014878008900a9000080fa0039
:1006d0004f03be004f02be004f01be004f00be00e0
:1006e0003600f900004006000040da000000fe007d
:1006f0000a00fa0011002000b1bf9f00c0bf9f0098
:100700006a805700260607004fb897000080fa005d
:10071000000006000a00fa00e20f500034003e001c
:1007200050458000e10f500003003200e20f5000fe
:1007300011003a000c003700833920000300e0006c
:1007400001003a000040da009803e20002003500a0
:10075000a023ef0099e3a8009b43ab000d003a00f3
:100760009b43a8000b003700e33a20000300e000a1
:1007700001003a000040da00ae03e200020035005a
:10078000b623ef00afe3a800b143ab0001003a008d
:10079000b143a800820178000b0037003102fb0052
:1007a000e10f500004003a009b23ab00feff3a002b
:1007b000e41c880003003700b123ab00feff3a00c1
:1007c000941d88008301e9000300e000f3ff3a0074
:1007d000e10f500003003a009b03ab00feff320024
:1007e0000b003700b103ab00feff320008003700fa
:1007f00033002000b3bf9f00c0bf9f00d1bf9f0048
:10080000e2bf9f006a805700e70507006fb99700b5
:10081000020078000080fa000000060000000500d9
:100820000000fa0068815700cfb89700104180009f
:1008300010007800f20107000080fa0000000600b6
:10084000a40037000000fa0068815700cfb8970075
:100850001041800010007800e90107000080fa00d4
:10086000000006000d0007006500070016010700e4
:100870003e01070097000700600207000b023700e7
:10088000000006008082200000000600fdff070037
:10089000304188002041880000000600ec874700b6
:1008a000889fbe008a9fbe008c9fbe008e1f78006e
:1008b00000067800010478001807900028059000d1
:1008c00098067800cdb79f00b80590003202be00b0
:1008d0002203be000400be000601be004f18de0069
:1008e0006011b8008000eb00d0b79f00e1b79f0017
:1008f000f2b79f0083bf9f00800478000900e000ea
:10090000060032006000b8006011b8000402500018
:100910008582580006035900878359000e00e000c5
:10092000020035000d10a100cdb79f000900e000c6
:1009300005003a004fb097000028a30002003a00db
:100940000038a300020032008a00e90001003700ed
:100950008a007800f8815700a20020000800780083
:10096000860007000900e00003003a00cfb09700be
:100970000128a300080032000000e90000814500c2
:10098000b1c2b3000900e00001003200d1c2b300df
:1009900001497800050037000138a3000300320048
:1009a0000000e90001c2b3008175780048019000a1
:1009b0000201e90000015100808045004fb297001c
:1009c0008a0178000c007800570207009c00900014
:1009d0000188a3000400320098009000810f5000ad
:1009e00001003d00010078004f0778004f06be006f
:1009f0004f05be004f04be00cf00b100000006004e
:100a00000200fa00889fbe008a9fbe008005780021
:100a10000104780002007800180190002805900079
:100a200098007800b1bf9f00b80490000200e00079
:100a3000020035000110a100b1bf9f00ea815700fc
:100a4000820020008a0078003002be002003be0031
:100a500008007800490007003fb99700f0006100e6
:100a6000030032000000e90001c3b3008174780084
:100a70003fb99700e8006100030032000000e90080
:100a800001c2b30081747800480190000201e900be
:100a900000015100808044003fba97008a0178002d
:100aa0000b007800200207009b0090000188a30043
:100ab0000400320098009000810f500001003d00ba
:100ac000010078004f05be004f04be000080fa0010
:100ad00000000600ea874700889fbe008a9fbe008c
:100ae0008e1f78000004780003007800728757009a
:100af00084e2260055c72600049fbe00c39622004c
:100b0000030f78006c875700004feb001105900031
:100b1000a1049000910578000200e000020032007c
:100b20000207780001003700728757000000e000dc
:100b300002003a000e007800c60407000a00e00038
:100b4000030035008a0f5000010036000a007800cb
:100b50000b02780089017800000178008e0078008f
:100b600008007800f00107004f0778004f05be002d
:100b70004f04be00af00b10000000600f48747003c
:100b8000889fbe008a9fbe008c9fbe008e1f78008b
:100b90000605be000404be0081bf9f0082b79f000f
:100ba000f3b79f00b0009000e1b79f0013017800f9
:100bb00092b79f0090069000400090000000e9006e
:100bc000000678000d00e00001003d001d0020003f
:100bd0008040eb00efb19700817178001e0020008b
:100be0001f0037000c06e9000fb09700cf80de0031
:100bf0006109b900a0b79f00b1b79f00c2b79f00bd
:100c0000d3b79f000203be000002be000800be0072
:100c10000a01be00c0050700000778000e407800fa
:100c20000043b000efb0970080707e008d06e900b1
:100c30000fb997000201e90082bf9f002fb2970011
:100c4000bfb297004fb39700dfb397000800be0014
:100c50000a01be00a90507000205be000004be008f
:100c60000c00e0000d003400e00f5400e08f5c0049
:100c7000e00f5d00e08f5d00daff3a000d00e0005c
:100c8000d8ff3c008fb997000300e0000300340058
:100c90001fb097000018a300d2ff3a000e00e0003a
:100ca00002003a00ffb097001140a1000c0078004c
:100cb0004f0778004f06be004f05be004f04be0030
:100cc0004f01b100000006000200fa00889fbe003c
:100cd0008a9fbe00000578000104780002007800b9
:100ce00018019000a804900098007800b1bf9f0000
:100cf000b80590000200e000020035000110a100dc
:100d0000b1bf9f00ea815700a2002000890078004f
:100d10003002be002003be000800780097ff0700e5
:100d2000480190000201e900000151008080450067
:100d30003fba9700890178000a0078007a0107001d
:100d40009a0090000188a3000400320098009000ef
:100d5000810f500001003d00010078004f05be00ea
:100d60004f04be000080fa0000000600fa8747002a
:100d7000889fbe008a9fbe008c9fbe008e1f780099
:100d80008004780001047800820578001801900042
:100d90002805900018077800b80090000200e000d5
:100da000020035000e10a1000100370012002000e3
:100db00070006700e0b79f00090032003b02be00f0
:100dc0002b03be00e00f5200e08f5a00e00f5b00e3
:100dd000e08f5b00020032008a86e90001003700e4
:100de0008a067800e8026700f5b79f00010032002c
:100df0008d06e9003b02be002b03be00e4af9f005e
:100e0000f5af9f0086b79f0097b79f0048069000f8
:100e10000c06e9000040eb0080707e00efb2970006
:100e20007fb297008903780081047800d8af9f00d3
:100e3000020478008bbf9f008a0578000345780084
:100e40002a0037000c06e9006fab97006f006300c3
:100e5000e90f500002003c000003b0000100370021
:100e60007005b0000a03fb001604b100f90f53002f
:100e70000c003e00000378000650a0001606b100ea
:100e8000f90f530007003e00b4b79f00a5b79f00bd
:100e9000c7b79f0018040700cfb39700afb2970001
:100ea0003fb2970080747e000804e9008d06e900d7
:100eb0006fa89700ffa897000fb197009fb1970008
:100ec000460020008301d1000281d3008180d3003d
:100ed0000080d3000603e900faff3a00e0af9f006c
:100ee000f1af9f0082b79f0093b79f00e10f5600bc
:100ef0000f0034006fa89700ffa897000fb197006c
:100f00009fb19700e00f5000e08f5800e00f5900ac
:100f1000e08f5900cbff3a000800e000c9ff3c0019
:100f20000d00e000020034000e18a300c5ff3a00d7
:100f300089007800f4b79f00870478005fac9700c1
:100f40008a4178000b0578008fbd97000500e0000e
:100f5000100032003b02be002b03be00e4af9f0036
:100f6000f5af9f0086b79f0097b79f00e00f520034
:100f7000e08f5a00e00f5b00e08f5b00050032005d
:100f80000c06e90083707e000c06e90000c3b30084
:100f900080707e00ffb297000500e0000300320081
:100fa0000c06e90000c2b30080707e00480190008a
:100fb0000201e9000c0151008c8040000e02780013
:100fc0008a01780009007800d70007009900900096
:100fd0000188a3000400320098009000810f5000a7
:100fe00001003d00010078004f0778004f06be0069
:100ff0004f05be004f04be00af01b1000000060067
:101000000200fa00881f780000047800e2bf9f0009
:101010006481570008007800820207009800900061
:101020000148a300010032000080eb004f0478006b
:101030000080fa0000000600889fbe0000047800cf
:101040004800900082047800808f54000100360030
:10105000800478000901780058009000120307000e
:10106000580090000900400050049800c80090000b
:1010700089845000490498000048eb004f04be00ea
:101080000000060010007800a2fd370090019000db
:101090000388a30001003200e7ff37000348a300e4
:1010a00001003a00f7ff0700000006008408200056
:1010b000848f50001d0032000d003c0014082000f9
:1010c000848f50002700320002003c0004082000fa
:1010d0000400370024082000848f500034003200c0
:1010e00044082000848f500043003a003600370047
:1010f000040a2000848f50002700320004003c00c6
:1011000004092000848f50003b003a00280037007b
:10111000020c2000828f50002f003200020f2000ae
:10112000828f500034003a002b0037009380e90092
:101130000200e00005003200810978001102fb0086
:10114000cfa2de00612bb9002800370081097800aa
:10115000114278000482fb008002eb006033b8008b
:101160002200370013027800e40052000200e00081
:1011700005003200810978001102be004fabde008d
:101180008603780019003700810978001102be003b
:101190006033b800150037009380e90081097800ba
:1011a00011027800cfa2de00612bb9000f003700da
:1011b00093027800e8805200810978003102be0075
:1011c0002103be00090037009380e9000200e0001f
:1011d00002003200f1ff37009380e90081097800b6
:1011e000110278008002eb006033b8000498be0062
:1011f0000690be0010000500000005004408200015
:10120000848f50002500320008003c0014082000a4
:10121000848f50001400320024082000848f500076
:1012200024003200040820000c00370004092000cc
:10123000848f50001f00320004003c00840820000e
:10124000848f500024003a000e003700040a20006a
:10125000848f500011003200040c2000848f500055
:101260001d003a000d0037009380e90081097800e5
:101270009100780001087800cf91de008288be00de
:10128000140037009380e90081097800910078000c
:1012900001087800824878000e0037009380e9004a
:1012a00081097800910078000108780082087800b0
:1012b000080037009380e9008109780091007800e8
:1012c000010878006112b900612bb9008498be0052
:1012d0008690be001000050000000500889fbe003b
:1012e000000478004800900082047800808f540049
:1012f0000100360080047800090178005800900051
:10130000690207005800900009004000500498004e
:10131000c800900089845000490498000048eb0000
:101320004f04be0000000600f2874700889fbe0001
:101330008a9fbe008c9fbe008e1f780080047800bc
:1013400001057800020478008305780061076200d7
:1013500002003a008b0f54000800390008017800a1
:101360008a0078000900780048ff07008b0f5400be
:1013700002003900880578001e00370008865500f5
:101380000c017800f00f5600010036000201200029
:10139000010220007e8057004a0207008c06780078
:1013a0000500370002012000fe8057000900780088
:1013b00036ff0700f0865600ef8f5600f9ff3e001b
:1013c0004461de0000ff2f000091b90002014600d9
:1013d000fe805700090078002cff07000e00e00097
:1013e00004003a00080178008a00780009007800bb
:1013f00026ff07000b0078004f0778004f06be005d
:101400004f05be004f04be002f01b10000000600d2
:101410000000050000000500000005000001780044
:101420000040eb008080fb0081804000c3882000ea
:1014300063c278000404e00003003a00d088200072
:1014400060c078000000060092017800934f5200bf
:1014500004003a00d088200060c078000309e8004a
:10146000010037000040e800ea4f5000edff360071
:1014700000000600f6874700889fbe008a9fbe00d6
:101480008c9fbe008e1f7800000578000104780054
:1014900083057800040678000000eb00c0b79f00c9
:1014a0008080eb00d1b79f00e0b79f00f2b79f00ac
:1014b0000008200080bf9f0098007800010078009d
:1014c0008004eb00010037008904e8003041780017
:1014d0000204e0000300320053c2b300834f510006
:1014e000f9ff3a000900e000040032000901780029
:1014f0000a007800e5fe0700188c44001807780001
:1015000050c2b3009e4f10003f013a000e07e800a2
:101510000e0c780010003700cfb097000100a0003b
:101520000b003700cfb097000110a0000800370073
:10153000cfb097000120a00005003700cfb0970082
:101540000130a00002003700cfb097000140a0009a
:10155000c1b79f00000ce8001800780090407800a8
:10156000b2c2b30082cf5000f1ff320007003c004e
:1015700002c2b30082cf5000f0ff320032c2b3008b
:1015800082cf500007003a00efff3700d2c2b3000d
:1015900082cf5000e0ff320002c3b30082cf500080
:1015a000e0ff3200a2c2b30082cf50000d003a002b
:1015b000000ce8001c80e900000e780010007800a4
:1015c000e0b79f000000e0000f003d00cfb09700a3
:1015d0000100a200c1b79f000000ea00e0b79f0031
:1015e0000900370084010700e0b79f0001003700c1
:1015f000000ce800180078009000fb000103b10027
:10160000e98f5000faff36004fb097000008a300a2
:10161000020032000010a100c0b79f00180078003f
:10162000e1c2b30090cf100016003a008000eb003a
:10163000d1b79f000000e800000c7800a1c2b30001
:1016400090cf100006003a00000ce8001c80e90072
:10165000000e780010007800d0b79f000900370016
:1016600065010700d0b79f0001003700000ce800bb
:10167000180078009000fb000103b100e98f5000d2
:10168000faff36000800780064ff07008046780003
:10169000180078001000fb001002070091062000df
:1016a000810f50003800320012003c00410620003b
:1016b000810f5000340032000a003c001106200067
:1016c000810f50002000320031062000810f5000b1
:1016d000a000320051022000810f5000bc003a00ef
:1016e000b400370071062000810f5000b8003c00a4
:1016f0008800370001072000810f50005c00320095
:1017000007003c00e1062000810f50007a00320003
:10171000f1062000810f5000ad003a00390037007b
:1017200051072000810f5000270032008107200060
:10173000810f50004200320031072000810f50001d
:10174000a3003a008f0037008d80fb000c01780069
:1017500000fe2f000f004000f20107000000e00033
:10176000a800320018007800000ce80090417800d2
:1017700002fe2f000f014100f88057000a00780098
:1017800024ff07000e0037008d80fb008c017800dd
:101790001200200000fe2f000f00400043fe070053
:1017a0000000e00097003200180ce80002fe2f0055
:1017b0000f014100f88057000a00780037fc07004d
:1017c00080844400900037008d80fb008c017800fd
:1017d0000001eb0000fe2f000f00400033fe070069
:1017e0000000e00087003200180ce80002fe2f0025
:1017f0000f014100f88057000a00780032fd070011
:10180000efff37008d80fb008c0178000001eb00ba
:1018100000fe2f000f00400024fe07000000e00043
:1018200078003200180ce80002fe2f000f01410082
:10183000f88057000a00780071fc0700e0ff3700cd
:101840008d80fb008c0178000001eb0000fe2f0072
:101850000f00400015fe07000000e00069003200a4
:1018600018007800000ce800904178001c00370058
:101870008c0178000001eb00010f200000fe2f001a
:101880000f00400009fe07000000e0005d0032008c
:10189000180ce8000fb097009fb097002fb1970089
:1018a000bfb19700e00f5000e08f5800e00f5900e3
:1018b000e08f590009003a00cfb597006fb4970048
:1018c00040882000630107000b027800880178003f
:1018d00000017800418820004700370083c7b3002b
:1018e00002fe2f000f014100f88057000a00780027
:1018f0001efd0700b2ff37000b8144008d80fb0006
:101900008c01780000fe2f000f0040003bfe070016
:101910003c0037008d80fb000c01780000fe2f009a
:101920000f0040007f0107000000e000350032009a
:1019300018007800000ce8009041780002fe2f00ab
:101940000f014100f88057000a007800b1fe07003f
:101950009bff370000c8b30080cf560029003a0033
:10196000180ce8001c80e900000e78001040780098
:10197000e0df9f0013002000e2fd2f000f01410077
:101980000800370000c8b30080cf56001d003a00a1
:10199000180ce8001c80e900000e78008001eb00c4
:1019a00010017800f88057000a00780049fc070011
:1019b00083ff370000c8b30080cf560011003a0003
:1019c000180ce8004fb29700efb1970008003700fd
:1019d0000e0c78000000eb00c0b79f00e0b79f003e
:1019e0000080eb00d0b79f000002eb00840178007c
:1019f00012002000a18820000a0078004afe07009b
:101a00006fff3700180ce800090078004f077800d6
:101a10004f06be004f05be004f04be006f01b1006f
:101a2000000006008200fa00889fbe008a1f78002e
:101a30000005780082047800c13f9f000004eb009d
:101a4000100037000902780088017800a2f72f0003
:101a50000f01410081f72f008f8040000a007800bd
:101a600084fe070008004000880f500004003d007d
:101a7000b0042000404588000084eb0004003700db
:101a8000000478004f3897001004e000edff3a00a2
:101a9000080078004f0578004f04be000080fa006f
:101aa00000000600889fbe000004be000000eb009e
:101ab0000800e00018003200180090000058a30051
:101ac0000d003200d800900068009000808f500018
:101ad00009003600b80990000001eb008200780090
:101ae0000800780003000100d80090000080eb009f
:101af0000100e000080032000000eb00200c98001c
:101b000060049800500498000900e00002003200d0
:101b100018007800f6fa07004f04be000000060027
:101b2000889fbe000004be000000eb000800e0003b
:101b300025003200180090000058a3001100320068
:101b4000d800900068009000808f50000900360097
:101b5000b80990000001eb008200780008007800ce
:101b600003000100d80090000080eb000100e000bd
:101b7000150032000000eb00200c98006004980073
:101b800050049800780a900008109000800f5200ce
:101b9000060031000002520011002000cfa2de003a
:101ba000612bb90018007800390007000000eb0035
:101bb00000149800700c98000900e0000200320048
:101bc00018007800cafa07004f04be0000000600a3
:101bd000800078001000200002022000828f500058
:101be00004003200e9805000e48f5000010036000c
:101bf0000000eb0000000600889fbe008a1f7800ee
:101c0000000578000a047800984478000805e80088
:101c10000900fb00eeff07000000e000f9ff3a00ba
:101c2000b0c2b30080cf540005003200d0c2b30070
:101c30008000eb0080cf540005003a00020037001e
:101c40008000eb0001003700110020000804e800cc
:101c50000000eb00030037006a02b90002005200e6
:101c60000003b0003801fb0003fd2f00828141001a
:101c7000e98f5100f8ff36000100e00001003a0052
:101c80000000ea004f0578004f04be000000060087
:101c9000a0fd2f00f1ff2f00860007004f89de0016
:101ca0008201780000000600800178000200370001
:101cb000b15978000201e9000200e000fcff3a009f
:101cc00000000600889fbe008a9fbe008004780046
:101cd0000200e0005b00320001407800814c780097
:101ce00082814400f1f99f00e20f51005500360057
:101cf00091449800a1449800e1f99f00d1f99f0018
:101d0000e60f51004f003600b1449800c1f99f0022
:101d1000e80f51004b0036000905ea006305650035
:101d20000a8444000a055100c1ff2f000105650027
:101d30000080fb008000eb00121020001310200038
:101d4000cf000700008cbe000a01440060b99f006c
:101d500071b99f00e80f55003a0036002004980042
:101d600031049800400498005104980020b99f0065
:101d700031b99f0040b99f0051b99f00f80f55003d
:101d8000300036006004980071049800000c980040
:101d9000110c9800200c9800310c9800400c980011
:101da000510c980020b19f0031b19f0040b19f00bd
:101db00051b19f0060b19f0071b19f0000b99f00b9
:101dc00011b99f00640164007801410002044400dd
:101dd000020555006011b8000203be000002be00fb
:101de0000403be006022b80000007200818072000f
:101df000020173008381730010003700009cbe0055
:101e00000294be00400498005104980062049800b7
:101e100073049800000c9800110c9800220c980094
:101e2000330c9800400c9800510c9800620c9800fc
:101e3000730c98000a02b1000802b000ff0f5500b1
:101e4000eeff3e00090078004f05be004f04be00c3
:101e50000000060080007800040037003104e00034
:101e600002003a0000005100000006000101780065
:101e70000108a300f9ff3a008101780031017800e0
:101e8000f4ef2f00020242000281ea000201620028
:101e90000408280004016100f7ff32008300780085
:101ea000010178003104e000fdff3a00000051001c
:101eb0000000060002002f00f3ff2f00820f5000e9
:101ec000838f5800040036000000ea004045880077
:101ed0000080eb008080eb0000000600f1fb2f008b
:101ee00080804000f98f500001003e000050a000ab
:101ef00000000600f9ff3700f1f92f008080400054
:101f0000f98f500001003e00f005b200000006000d
:101f1000f9ff3700000006005cfa0700fdff07002c
:101f2000fcff3700881f78000004780000082000bc
:101f3000808f50001700350010082000808f50005f
:101f40000b00340030082000808f500011003a0050
:101f50009200780068805000000978003002be00ce
:101f60002003be00049cbe000694be00070037009c
:101f70009202780064805200000978001000be00d0
:101f80000b000700009cbe000294be001000200061
:101f9000010037000000eb004f047800000006004d
:101fa00000c0da000000060000c0da0000000600f1
:101fb000810378001d0007000001be006000b8002a
:101fc0000478a30013003a006220e10015003e00ef
:101fd0000d0039008301d1000281d3008180d3003c
:101fe0008301d1000281d3008180d3008301d1001d
:101ff0000281d3008180d3000538b000c42add00ff
:10200000f300b2008381720007f0a70003f0a00084
:102010000000060083ff2700020020006110b900c5
:10202000f9ff370003ff2700f7ff3700c70ade007c
:10203000f107b200f50fb20008003200e1cf420014
:10204000020032000170a00024000500810f700022
:10205000010032000408050044000500810f7000f3
:1020600002003a00140005008502e900000040006b
:1020700081c04800fcff3b000170a0002400050067
:10208000020ab900001bb9000200b800810042003a
:102090008100430000000600889fbe008a9fbe00aa
:1020a00030044200b0844a0030054b0090854b005c
:1020b0006000b1000898be000a90be000440e10034
:1020c00005c8e10006d0e10007d8e10002003100b8
:1020d000680040001008e8004f05be004f04be0035
:1020e00000000600889fbe008a9fbe003004be002c
:1020f0002005be000418540005985c0006185d0019
:1021000007985d00110020000440e10005c8e100cf
:1021100006d0e10007d8e100010039008000eb00a3
:10212000108810004f05be004f04be0000000600de
:102130001200fa00889fbe008a9fbe008c9fbe00de
:10214000e0b79f00f1b79f0082bf9f0093bf9f0041
:102150000605be000404be000000eb00d0b79f00df
:10216000c0b79f00b0b79f00a0b79f0090b79f0077
:10217000000678005fb19700cfb097008201410060
:102180003fb097000200e00004003d003700070068
:102190007e805700c0ff07000300370033000700b0
:1021a0007e805700cfff0700dfb697000d00e000ec
:1021b0000c0035006fb29700ffb297000fbb97007d
:1021c0009fbb970010002000010020006011b800a4
:1021d0000002720081827200020373008383730025
:1021e0001b0007000c06e80001042000810f5600c8
:1021f000e0ff3a000d00e00004003d000802be00d0
:102200000a03be007e805700a3ff07005fa8970067
:102210000000e00005003a001fb29700afb297003f
:102220003fb39700cfb39700090007006fb0970046
:10223000ffb097000fb997009fb997004f06be00f7
:102240004f05be004f04be000080fa0000000600eb
:102250000100070000000600a4b79f00b5b79f006b
:10226000c6b79f00d7b79f00000006004f09de00e9
:1022700082817100b3b79f004f01de008180400072
:1022800082807000a1b79f008fb097004f09de00d9
:10229000000040000200700090b79f007fa89700e8
:1022a0004f01de00818040008280700081b79f0076
:1022b0000d0007004f3ade000000400004007000ef
:1022c000f0af9f00080007000402420085824a0028
:1022d00006034b0087834b00dfff07000802be00a8
:1022e0000a03be00000006002fb29700bfb297009d
:1022f0004fb39700dfb3970000000600881f7800f7
:1023000018002000881f780089ff07008f87e900e8
:102310004f04780000000600801feb0084ff0700d8
:102320008f87e90000000600889fbe008a9fbe00dc
:10233000e00f5000e08f5800e00f5900e08f590087
:102340000c003d006044b8006055b8000000540027
:1023500081805c0002015d0083815d001800200027
:102360001500070008003d00180007000004eb00fe
:10237000050037000004eb000f00070002003d00dd
:102380001200070018002000dcff07000800e00032
:10239000060032006022b8006033b800000052002e
:1023a00081805a0002015b0083815b004f05be0003
:1023b0004f04be0000000600e00f5200e08f5a00fc
:1023c000e00f5b00e08f5b00000006006044b80097
:1023d0006055b8000402540085825c0006035d006d
:1023e00087835d0000000600889fbe008a9fbe00b4
:1023f0008c1f7800e00f5000e08f5800e00f59006c
:10240000e08f59000d003d006044b8006055b800f1
:102410000000540081805c0002015d0083815d004a
:102420001c0020000820e10009a8e1000ab0e1003a
:102430000bb8e1000d003d00080037000006eb007e
:10244000e00f5200e08f5a00e00f5b00e08f5b006e
:1024500006003d006044b8006055b8000402540016
:1024600085825c0006035d0087835d00aaff07008c
:102470000c00e000060032006022b8006033b800b3
:102480000000520081805a0002015b0083815b00e2
:102490004f0678004f05be004f04be000000060046
:020000040000fa
:1024a000546900006d650000204500006c6100006b
:1024b0007073000065640000202000003d200000d3
:1024c000256400002c200000416c000061720000b7
:1024d0006d20000053650000742000003d200000c6
:1024e000256400000d000000747200007565000096
:0424f00000000000e8
:020000040000fa
:1024f4000000fa009621ef00900f2000e00c880005
:1025040000022800000d8800904080000000e000d8
:1025140002003a00202d21006000070088e0a90095
:1025240098e0a800208a20008040eb000148780051
:102534000080fa00000006000200fa00000f780094
:102544009e007800e10c8800208a20008040eb0087
:10255400014878000080fa00000006000000fa003c
:10256400e00c80000080fa00000006000200fa007f
:10257400000f78009e007800b10c8800208a2000ab
:102584008040eb00014878000080fa00000006005b
:102594000000fa00b00c80000080fa000000060081
:1025a4000000fa0060408000e10f500017003a007c
:1025b400a140800000192000808f500003003e00dd
:1025c400a04080000000e800010037000000eb009c
:1025d400a0408800a04080008a000700b14080002d
:1025e40000192000808f500003003e00b04080009e
:1025f4000000e9000100370000192000b040880005
:10260400b04080000f01070022003700c040800066
:102614000000e00003003200e10f5000100032001f
:102624001c003700a1408000e0182000808f50007b
:1026340008003e00a04080000000e800a0408800a0
:10264400a04080006f000700a0408000fd0007004c
:102654001000370010002000c04088000d00370033
:10266400a04080000000e00008003200a04080008c
:102674000000e900a0408800a0408000610007003d
:10268400a0408000ef000700020037001828ef0088
:10269400000000000080fa00000006000200fa00ba
:1026a400000f780098e0a9009e007800914088000f
:1026b40098e0a8000080fa00000006000000fa007c
:1026c400208a20008040eb000148780098e0a800b0
:1026d400a1e1a8000080fa00000006000000fa0052
:1026e400a1e1a90098e0a9000080fa00000006001a
:1026f4000200fa00208a2000104f78001e40780063
:102704000004e00003003200208a20008040eb0037
:10271400014878001e4078000080fa00000006009e
:102724000000fa00308a2000104078000080fb008e
:102734000080fa00000006000000fa00308a200041
:102744008040eb00014878000080fa000000060099
:102754000000fa007000210080118800b000200001
:10276400901188003422ef003622ef00801180009f
:1027740000407800674060000080fb00d040880083
:102784008840a9009840a8000080fa0000000600d4
:102794000000fa000080fa00000006000000fa00c1
:1027a400d040800000407800674060000080fb005b
:1027b400670060008211800081ff2f0081006100aa
:1027c40001007000801188000080fa0000000600fb
:1027d4000000fa008111800080ff2f00008060005b
:1027e400801188000080fa00000006000200fa0050
:1027f400000f78009e007800a11188000080fa0084
:10280400000006000200fa00000f78009e00780025
:10281400b11188000080fa00000006000000fa00f0
:10282400400480004200de00614060000080fb0044
:1028340000f0a7000000ea000000ea004f00de00fc
:10284400004078000080fa00000006000400fa004e
:10285400100798001e009000e10f50000f00320096
:10286400e10f500003003900e20f50001500320060
:102874001e003700801180004400de0061406000cb
:102884000080fb0000f0a7000000ea000000ea005e
:102894004f00de00004f78001400370080118000e4
:1028a4004500de00614060000080fb0000f0a700ee
:1028b4000000ea000000ea004f00de00004f78004c
:1028c4000a003700801180004600de00614060008d
:1028d4000080fb0000f0a7000000ea000000ea000e
:1028e4004f00de00004f7800000000001e4078001a
:1028f4000080fa00000006000200fa00000f7800d1
:102904001e007800e10f500007003200e10f500074
:1029140003003900e20f50000500320006003700c2
:102924003082a9000400370030a2a9000200370059
:1029340030c2a900000000000080fa000000060078
:102944000000fa0032c2a8000080fa00000006006d
:102954000000fa00901180004600de006140600033
:102964000080fb0000f0a7000000ea000000ea007d
:102974004f00de00004078000080fa0000000600ee
:102984000000fa0032c2a9000080fa00000006002c
:102994000000fa0070002100d0118800b00020006f
:1029a400e01188003e22ef004022ef00d0118000a9
:1029b40000407800674060000080fb00f040880021
:1029c40088c0a90098c0a8000080fa000000060092
:1029d4000000fa000080fa00000006000000fa007f
:1029e400f040800000407800674060000080fb00f9
:1029f40067006000d211800081ff2f008100610018
:102a040001007000d01188000080fa000000060068
:102a14000000fa00d111800080ff2f0000806000c8
:102a2400d01188000080fa00000006000200fa00bd
:102a3400000f78009e007800f11188000080fa00f1
:102a4400000006000200fa00000f78009e007800e3
:102a5400011288000080fa00000006000000fa005d
:102a6400400480004600de00614060000080fb00fe
:102a740000f0a7000000ea000000ea004f00de00ba
:102a8400004078000080fa00000006000400fa000c
:102a9400100798001e009000e10f50000f00320054
:102aa400e10f500003003900e20f5000150032001e
:102ab4001e003700d01180004400de006140600039
:102ac4000080fb0000f0a7000000ea000000ea001c
:102ad4004f00de00004f780014003700d011800052
:102ae4004500de00614060000080fb0000f0a700ac
:102af4000000ea000000ea004f00de00004f78000a
:102b04000a003700d01180004600de0061406000fa
:102b14000080fb0000f0a7000000ea000000ea00cb
:102b24004f00de00004f7800000000001e407800d7
:102b34000080fa00000006000200fa00000f78008e
:102b44001e007800e10f500007003200e10f500032
:102b540003003900e20f5000050032000600370080
:102b64003a82a900040037003aa2a9000200370003
:102b74003ac2a900000000000080fa00000006002c
:102b84000000fa003cc2a8000080fa000000060021
:102b94000000fa00e01180004600de0061406000a1
:102ba4000080fb0000f0a7000000ea000000ea003b
:102bb4004f00de00004078000080fa0000000600ac
:102bc4000000fa003cc2a9000080fa0000000600e0
:102bd4000000fa009a21ef0030422f00f00c880028
:102be40000032800100d8800004180000000e00070
:102bf40002003a00206421004c0007008900a9006b
:102c04009900a800608a20008040eb000148780009
:102c14000080fa00000006000200fa00000f7800ad
:102c24009e007800f10c8800608a20008040eb0050
:102c3400014878000080fa00000006000000fa0055
:102c4400f00c80000080fa00000006000200fa0088
:102c5400000f78009e007800d10c8800608a200064
:102c64008040eb00014878000080fa000000060074
:102c74000000fa00d00c80000080fa00000006007a
:102c84000000fa004140800050408000811f78001d
:102c9400801f780000252900801f7800e8f60700cf
:102ca400e6875700004080000000e0000500320085
:102cb400404080006a004000404088000028ef0047
:102cc40007003700104080000000e00004003200dc
:102cd4000828ef000a28ef000c28ef000228ef0074
:102ce400404080000000e0000300320050408000bb
:102cf4000000e800504088005140800040408000bf
:102d0400808f500005003a00404080000000e00041
:102d14000200320010002000604088000028ef000c
:102d24000228ef000080fa00000006000200fa000a
:102d3400000f78009900a9009e00780001418800e6
:102d44009900a8000080fa00000006000000fa00c4
:102d5400608a20008040eb00014878009900a800b8
:102d6400a3e1a8000080fa00000006000000fa00b9
:102d7400a3e1a9009900a9000080fa000000060060
:102d84000200fa00608a2000104f78001e4078008c
:102d94000004e00003003200608a20008040eb0061
:102da400014878001e4078000080fa000000060008
:102db4000000fa00708a2000104078000080fb00b8
:102dc4000080fa00000006000000fa00708a20006b
:102dd4008040eb00014878000080fa000000060003
:102de4000000fa0080002000c01c88009a23ef0035
:102df40020022000001d8800a223ef0099e3a80010
:102e04009b43a8000080fa00000006000000fa00be
:102e140000000000d01c8000610060000000e000a1
:102e2400fcff3200d01c8000620060000000e00063
:102e3400010032009a23a900f01c800000407800b1
:102e44000080fa00000006000200fa00004f78003b
:102e540000000000d11c80000020200000806000e1
:102e64000000e000fbff3a001e80fb00e01c88002d
:102e74000080fa00000006000000fa00d01c800068
:102e840000407800614060000080fb0000f0a70073
:102e94000000ea000000ea004f00de000040780075
:102ea4000080fa00000006000000fa00d11c800037
:102eb40000202000008060000000e00007003a00cd
:102ec400d11c800000402000008060000000e00071
:102ed4000200320010002000010037000000eb0067
:102ee400004078000080fa00000006000000fa00ac
:102ef400d01c80004800de00614060000080fb00c0
:102f040000f0a7000000ea000000ea004f00de0025
:102f1400004078000080fa00000006000000fa007b
:102f2400d01c80000080fa00000006000000fa00b7
:102f340099e3a8009b43a8000080fa000000060063
:102f44000000fa0099e3a9009b43a9000080fa005d
:102f5400000006000000fa009021ef00f06320005a
:102f6400900c880000002800a00c8800408a2000f3
:102f74008040eb00014878000080fa000000060061
:102f84000000fa0040048000680060000000e000d7
:102f940009003200508a2000104078008040e80088
:102fa400508a200001487800408a200011c0b300f4
:102fb400014878008860a9000080fa00000006003b
:102fc4000200fa00000f78009e007800910c88003f
:102fd400408a20008040eb00014878000080fa001d
:102fe400000006000000fa00900c80000080fa0047
:102ff400000006000200fa00000f78009e0078002e
:10300400810c8800408a20008040eb000148780051
:103014000080fa00000006000000fa00800c800026
:103024000080fa00000006000000fa00408a200038
:103034008040eb000148780095e1a8000080fa0088
:10304400000006000000fa0095e1a9000080fa00e3
:10305400000006000200fa00408a2000104f7800a9
:103064001e4078000004e00003003200408a200083
:103074008040eb00014878001e4078000080fa0090
:10308400000006000000fa00508a2000104078007a
:103094000080fb000080fa00000006000000fa0037
:1030a400508a20008040eb00014878000080fa003c
:1030b400000006000000fa006626ef007a26ef0002
:1030c4008e26ef0070f9270010338800d0fe2f0001
:1030d400b0338800702c2000503488007426ef0030
:1030e4008826ef009c26ef007226ef008626ef006c
:1030f4009a26ef006826ef007c26ef009026ef006a
:103104007000200050338800d0202f00f033880056
:10311400700020009034880001088000f00b20002b
:10312400008160006004200071052000031020006d
:10313400804978008149780082497800413f8000c5
:10314400f00f28008080600000e020000100700083
:10315400403f8800c13e800000f82f0000806000de
:10316400d000b300c03e8800613f800000f82f000b
:10317400008060003000b300603f8800a13d800003
:1031840000fc2f00008060009001b300a03d880087
:10319400313f8000f00f28008080600000e02000b4
:1031a40001007000303f8800413f800000f82f008c
:1031b40000806000d000b300403f88000008800019
:1031c400000178000260a000600420007105200066
:1031d40003102000804978008149780082497800f2
:1031e4000080fa00000006000400fa00000f7800d6
:1031f400110798001e007800100078000000e0001d
:1032040010003a001e007800900078001e00900024
:1032140010007800808f50000a0032001e007800f1
:10322400900078001e0090000108780040272900d3
:10323400801f780079f507008f87e90010c0b3007c
:10324400050037001e007800900078001e009000f2
:10325400010878000040eb000080fa00000006003e
:103264000600fa00408020001007980060802000cb
:1032740020079800bb0007007626a90062e6a80094
:103284006346a800010037000000000021338000dd
:1032940000082000008060000000e00008003a0000
:1032a4001e0078000000e00002003a001000200038
:1032b4000040880010002000000f78000f00370045
:1032c4002133800000402000008060000000e00006
:1032d40008003a001e0078000000e00002003a00f6
:1032e400100020001040880010002000000f78001b
:1032f400020037000000eb00000f780060408000ff
:10330400e10f5000e0ff3a007a26a9000000000017
:0c3314007a26a80000000000dcff370053
:020000040000fa
:103320001a0800000200000080000000640800008d
:1033300020000000800000001c08000002000000c7
:1033400082000000ffff0000a20800000200000051
:10335000800000001208000008000000800000004b
:10336000a408000002000000800000001e08000009
:103370000200000080000000a6080000020000001b
:103380008000000020080000020000008000000013
:103390000008000012000000800000002208000069
:1033a00042000000820000002608280008280800cb
:1033b0000100030000000000000000000000000009
:1033c000000090000d000000000000000042080016
:1033d00040040000000000000000000000000000a9
:1033e00000000000000000000000000000000000dd
:1033f00000000000000000000000000000000000cd
:10340000840800001e00000082000000286e690091
:103410006c29000025006800076c09004c836a00d5
:103420009074a0007ac000008068880000846c005e
:1034300082008100a8080000020000008000000057
:10344000aa08000002000000820000000100000045
:043450000000000078
:020000040000fa
:103454000000fa0000002300100888000621ef0095
:103464006821ef006a21ef000821ef0000702000be
:10347400500888000c21ef000e21ef007821ef00a6
:103484007a21ef007c21ef007e21ef008021ef0004
:103494008221ef008421ef008621ef00120020003a
:1034a40080072000a1092000131020008049780023
:1034b40081497800824978001200200060042000cd
:1034c40071052000031020008049780081497800ac
:1034d400824978000000000000088000610060005c
:1034e4000000e000fcff3a0000000000010880003a
:1034f40000022000008060000000e000fbff3200ba
:103504000080fa00000006000000fa004105800077
:10351400f08f2f00008060000080a000400588002c
:103524006105800080ff2f00008060000000a00083
:103534006005880051058000f0ff280000806000cd
:1035440000c0a0005005880051058000f08f2f00b6
:10355400008060000080a000500588000080fa0010
:10356400000006000000fa00d2fe0700b8ff0700c2
:10357400e5ff07001afe070095fd070074fc07002d
:1035840003fd0700dafb070072fe07000080fa0063
:10359400000006000200fa00000f78009e00780088
:1035a400e1408800ffff37000000fa004086200059
:1035b40080077800c0872000000188000080fa009e
:0435c40000000600fd
:020000040000fa
:020000040002f8
:04be0000ffffff0041
:020000040000fa
:020000040002f8
:04be2000ffffff0021
:020000040000fa
:020000040002f8
:04be300008ffff0008
:020000040000fa
:020000040002f8
:04be380067ffff00a1
:020000040000fa
:020000040002f8
:04be40009fffff0061
:020000040000fa
:020000040002f8
:04be4800ffffff00f9
:020000040000fa
:020000040002f8
:04be5000deffff0012
:020000040000fa
:020000040002f8
:04be5800ffffff00e9
:00000001FF
